:100000001BC07EC47DC47CC47BC47AC479C478C45C
:1000100077C476C475C474C473C472C471C470C424
:100020006FC46EC46DC4006000628000620068002E
:10003000090A00680069800011241FBECFE5D4E0E2
:10004000DEBFCDBFE6E2F0E040E017C0B591A5917C
:1000500035912591059107FD0CC095918591EF0192
:10006000F92FE82F05900D92A217B307D9F7FE01DB
:1000700004C01D92A217B307E1F7E733F40731F785
:0800800016D32DC4F894FFCF44
:100088001100010F060E01FE02000107020E01FE1B
:100098000200010F011E01FE020E01000118020EEE
:1000A80001FC0200010F020E01FE0200010F020E08
:1000B800014E013E0100010F020E013E01C0014048
:1000C800013F020E0700010F020E01FE010C0100A4
:1000D8000107020E01FE0200010F030E01FE0100DE
:1000E800010F010E018E017E0200010F01FE010EBB
:1000F8000180017F020E0100010F018E017E2C009C
:10010800010F01070400010F010703000107010F98
:10011800040E010702000118030E010F0107070072
:10012800011C040E010F01070C0001FF01700400FF
:10013800010F010702000138021C010F010E010620
:100148000107010105000207030E0106010701016D
:100158001900017001F801D802F8017803F806F0D7
:1001680002F801DC01CC02FC03DC04FC01F801D834
:1001780001F804F00AE001F004F801FC02FE02DFD5
:1001880004FF01DF01CF02FF01FE04F801F008E0DF
:1001980006F004F808FC02D801F801F003E008F0C2
:1001A80001F801D801F8017803F80170013008005E
:1001B800018001C001E00170023F011003FF3D0012
:1001C800250302FF010003FF0100017F01FF01C0B9
:1001D8000180060003E001E7017F01FF01F001E073
:1001E800020003FF010003F0010001C05C0002FFF0
:1001F80001E003FF02000101027F017E04F001A07B
:10020800040302FF018F0103018C010003FF0100B9
:1002180003FF010001035C00030303FF02000190D8
:1002280002FF017F0503040001010107010F01FE20
:1002380001FD010003FF0100017F02FF22C03F0012
:1002480003FF010002FF010301010A00010E011F63
:10025800011B021F011E011B011F070F021F013B8B
:100268000133023F043B033F011F011B011F030F22
:100278000B07010F041F013F027F01E301FB02FF8F
:1002880001BF01FF01FB01F301EF01FF017F031F24
:10029800020F0907050F041F083F021B011F010F6A
:1002A8000A07020F011B011F011E011F011B011F6D
:0602B800010E0104050027
:1002BE00000000FCFF01FFFD07030006030006031C
:1002CE000006030006030006030006FEFF05F8FD08
:1002DE000000000000000000000000000000000010
:1002EE00FCFF01F8FD00000000000000000000000F
:1002FE00000000000000FE0103FC070302060302DB
:10030E0006030206030206030206030206FE0304A8
:10031E00F8010000000000000003000603020603BF
:10032E000206030206030206030206030206FEFF8E
:10033E0005F8FD00000000FC0300FC0100000200B7
:10034E00000200000200000200000200000200FC99
:10035E00FF01F8FD00000000FC0300FF0106030290
:10036E000603020603020603020603020603020642
:10037E0002FE0500FC00000000FCFF01FFFD07036C
:10038E000206030206030206030206030206030226
:10039E000602FE0500FC0000000000000003000045
:1003AE00030000030000030000030000030000032D
:1003BE000000FEFF01F8FD00000000FCFF01FFFD44
:1003CE0007030206030206030206030206030206E1
:1003DE00030206FEFF05F8FD00000000FC0300FF0F
:1003EE0001060302060302060302060302060302C7
:1003FE0006030206FEFF05F8FD00000000000000E7
:10040E00000000000000000000401000000000008E
:10041E0000000000000000000000000000000000CE
:10042E0000000000000806000000000000000000B0
:0C043E00000000000000000000000000B2
:10044A002F923F924F925F926F927F928F929F92DA
:10045A00AF92BF92CF92DF92EF92FF920F931F93C8
:10046A00CF93DF9300D000D000D0CDB7DEB7342FC2
:10047A0049835A836B837C838D839E83D22EB02ECD
:10048A009E2C961A032F10E0452E512C049D7001C4
:10049A00059DF00C149DF00C11248CE30CD280E421
:1004AA0028D2212C312C40C06D2D620D8B2D860D4A
:1004BA00B7D12C813D814E819E9CC0019F9C900D9D
:1004CA001124249CB001259C700D349C700D1124BC
:1004DA00860F971F860D971D280F391F411D97FDFF
:1004EA004A95F901849147FD8081AA2059F0920129
:1004FA00215031096216730629F4882011F0806CA4
:10050A0001C08068CC2019F08095F3D101C0F1D1E7
:10051A008FEF681A780A02C0612C712C6414750472
:10052A001CF28FEF281A380A20163106ACF32696E9
:10053A000FB6F894DEBF0FBECDBFDF91CF911F91EA
:10054A000F91FF90EF90DF90CF90BF90AF909F9068
:10055A008F907F906F905F904F903F902F9008956B
:10056A008F929F92AF92BF92CF92DF92EF92FF92B9
:10057A000F931F93CF93DF9300D000D000D0CDB755
:10058A00DEB749835A836B837C838D839E83B22E25
:10059A009E2CDA2CA82C1DECE19E112D1124169507
:1005AA00169516950F2EF0E3EF2EF02DE10E8E889C
:1005BA0047DF4981110F812F880F880F180F892D66
:1005CA00811B0F2EF0E3EF2EF02DE80E2B2D240FBA
:1005DA008E88AD88CD2C5A816B817C818D819E81DC
:1005EA002FDF26960FB6F894DEBF0FBECDBFDF9180
:1005FA00CF911F910F91FF90EF90DF90CF90BF9016
:08060A00AF909F908F900895BE
:100612004F925F926F928F929F92AF92BF92CF92C0
:10062200DF92EF920F931F93CF93DF936901E42E32
:10063200480160E080E0F8D08CE341D180E45DD1F4
:10064200A12CB12C1EC0F601D491E7FCD081260169
:100652006E2C82E0480E511C611C8FEFC81AD80A1A
:10066200E80AF6011491E7FC1081C0E003C0812F73
:1006720044D1CF5FCD17D8F38FEFA81AB80AE62C72
:100682006201C40196958795A816B906E0F2DF913A
:10069200CF911F910F91EF90DF90CF90BF90AF90CD
:0C06A2009F908F906F905F904F90089594
:1006AE0081E081BB33D067D060E080E0B7D006E355
:1006BE0012E028E830E040E060E080E0A3DF1F9227
:1006CE001F92812CA12CC12C6894EE24E1F804E039
:1006DE002AE2409162005091630060916400709133
:1006EE006500809166009091670038DF0F900F9043
:1006FE0092B381E0892782BB2FEF80E792E02150F1
:0C070E0080409040E1F700C00000F2CFF6
:10071A00E8D08EEAC5D085EDC3D080E8C1D088EA9A
:10072A00BFD08FE3BDD083EDBBD080E0B9D080E4E9
:10073A00B7D08DE8B5D084E1B3D080E2B1D080E003
:10074A00AFD081EAADD088ECABD08AEDA9D082E1F6
:10075A00A7D081E8A5D08FECA3D089EDA1D081EFF5
:10076A009FD08BED9DD080E49BD084EA99D086EA15
:0A077A0097D08FEA95D001D00895C2
:10078400CF93DF9381E28FD080E08DD08FE78BD041
:1007940082E289D080E087D087E085D08CE38ED058
:1007A40080E4AAD0C0E0D0E003C080E0A5D02196C8
:1007B400C11584E0D807CCF381E275D080E073D012
:1007C4008FE771D082E26FD080E06DD087E06BD08C
:0E07D4008CE374D080E490D0DF91CF91089533
:1007E20090E0880F991F90916800892B83B984E863
:1007F20086BF06B607FEFDCF80916800811106C054
:1008020081B1887F883151F48FEF0895813041F4AE
:1008120081B1887F803431F48FEF08958EEF08958F
:0808220080E008958EEF0895B7
:10082A00CF93DF938830C0F46623B4F0D62FC82F55
:10083A00809360006093610081E232D08D2F30D0C6
:10084A008FE72ED082E22CD08C2F2AD087E028D0B6
:0E085A008CE331D080E44DD0DF91CF91089532
:100868008093680086B7846A86BF06B607FEFDCF08
:1008780081B1887F883011F0803111F48FEF0895AD
:040888008EEF089552
:10088C0083B986B7806886BF06B607FEFDCF81B1F7
:0E089C00887F883211F48FEF08958EEF089553
:1008AA00CF93C82F8CE307D080E023D08C2F21D0A0
:0608BA001ED0CF9108954D
:1008C000CF93C82F80E0D0DF8C2F8BDFCF9108959E
:0E08D00086B7806986BF06B604FCFDCF08958A
:0E08DE00EC0111D00FD0CE010FD0CE010ED004
:0C08EC0081B18C7F81B982E080B9089551
:0408F800EBDF089595
:0408FC00C7DF0895B5
:020900007FCBAB
:02090200089556
:02090400089554
:02090600089552
:02090800BDDB55
:06090A000B0330BE0200E9
:00000001FF
